{"learning/3-Local-Variables/LocalVariables.sol":{"LocalVariables":{"abi":[{"inputs":[{"internalType":"uint256","name":"a","type":"uint256"},{"internalType":"uint256","name":"b","type":"uint256"}],"name":"add","outputs":[{"internalType":"uint256","name":"","type":"uint256"}],"stateMutability":"pure","type":"function"},{"inputs":[],"name":"getBlockInfo","outputs":[{"internalType":"uint256","name":"","type":"uint256"},{"internalType":"uint256","name":"","type":"uint256"}],"stateMutability":"view","type":"function"}],"evm":{"bytecode":{"linkReferences":{},"object":"608060405234801561001057600080fd5b5060f68061001f6000396000f3fe6080604052348015600f57600080fd5b506004361060315760003560e01c8062819439146036578063771602f714604e575b600080fd5b60408051438152426020820152015b60405180910390f35b605d6059366004607f565b606a565b6040519081526020016045565b6000806075838560a0565b9150505b92915050565b60008060408385031215609157600080fd5b50508035926020909101359150565b80820180821115607957634e487b7160e01b600052601160045260246000fdfea2646970667358221220da8b39c467acaa6fe7d1b00eeaea93456d8ae92c1f18ec21cb60fbc4b204813164736f6c63430008140033","opcodes":"PUSH1 0x80 PUSH1 0x40 MSTORE CALLVALUE DUP1 ISZERO PUSH2 0x10 JUMPI PUSH1 0x0 DUP1 REVERT JUMPDEST POP PUSH1 0xF6 DUP1 PUSH2 0x1F PUSH1 0x0 CODECOPY PUSH1 0x0 RETURN INVALID PUSH1 0x80 PUSH1 0x40 MSTORE CALLVALUE DUP1 ISZERO PUSH1 0xF JUMPI PUSH1 0x0 DUP1 REVERT JUMPDEST POP PUSH1 0x4 CALLDATASIZE LT PUSH1 0x31 JUMPI PUSH1 0x0 CALLDATALOAD PUSH1 0xE0 SHR DUP1 PUSH3 0x819439 EQ PUSH1 0x36 JUMPI DUP1 PUSH4 0x771602F7 EQ PUSH1 0x4E JUMPI JUMPDEST PUSH1 0x0 DUP1 REVERT JUMPDEST PUSH1 0x40 DUP1 MLOAD NUMBER DUP2 MSTORE TIMESTAMP PUSH1 0x20 DUP3 ADD MSTORE ADD JUMPDEST PUSH1 0x40 MLOAD DUP1 SWAP2 SUB SWAP1 RETURN JUMPDEST PUSH1 0x5D PUSH1 0x59 CALLDATASIZE PUSH1 0x4 PUSH1 0x7F JUMP JUMPDEST PUSH1 0x6A JUMP JUMPDEST PUSH1 0x40 MLOAD SWAP1 DUP2 MSTORE PUSH1 0x20 ADD PUSH1 0x45 JUMP JUMPDEST PUSH1 0x0 DUP1 PUSH1 0x75 DUP4 DUP6 PUSH1 0xA0 JUMP JUMPDEST SWAP2 POP POP JUMPDEST SWAP3 SWAP2 POP POP JUMP JUMPDEST PUSH1 0x0 DUP1 PUSH1 0x40 DUP4 DUP6 SUB SLT ISZERO PUSH1 0x91 JUMPI PUSH1 0x0 DUP1 REVERT JUMPDEST POP POP DUP1 CALLDATALOAD SWAP3 PUSH1 0x20 SWAP1 SWAP2 ADD CALLDATALOAD SWAP2 POP JUMP JUMPDEST DUP1 DUP3 ADD DUP1 DUP3 GT ISZERO PUSH1 0x79 JUMPI PUSH4 0x4E487B71 PUSH1 0xE0 SHL PUSH1 0x0 MSTORE PUSH1 0x11 PUSH1 0x4 MSTORE PUSH1 0x24 PUSH1 0x0 REVERT INVALID LOG2 PUSH5 0x6970667358 0x22 SLT KECCAK256 0xDA DUP12 CODECOPY 0xC4 PUSH8 0xACAA6FE7D1B00EEA 0xEA SWAP4 GASLIMIT PUSH14 0x8AE92C1F18EC21CB60FBC4B20481 BALANCE PUSH5 0x736F6C6343 STOP ADDMOD EQ STOP CALLER "},"methodIdentifiers":{"add(uint256,uint256)":"771602f7","getBlockInfo()":"00819439"}}}}}