{"learning/4-Function/Functions.sol":{"Functions":{"abi":[{"inputs":[{"internalType":"uint256","name":"a","type":"uint256"},{"internalType":"uint256","name":"b","type":"uint256"}],"name":"add","outputs":[{"internalType":"uint256","name":"","type":"uint256"}],"stateMutability":"pure","type":"function"},{"inputs":[],"name":"get","outputs":[{"internalType":"uint256","name":"","type":"uint256"}],"stateMutability":"view","type":"function"},{"inputs":[{"internalType":"uint256","name":"_value","type":"uint256"}],"name":"set","outputs":[],"stateMutability":"nonpayable","type":"function"},{"inputs":[],"name":"value","outputs":[{"internalType":"uint256","name":"","type":"uint256"}],"stateMutability":"view","type":"function"}],"evm":{"bytecode":{"linkReferences":{},"object":"608060405234801561001057600080fd5b5061012b806100206000396000f3fe6080604052348015600f57600080fd5b506004361060465760003560e01c80633fa4f24514604b57806360fe47b11460655780636d4ce63c146077578063771602f714607e575b600080fd5b605360005481565b60405190815260200160405180910390f35b60756070366004609c565b600055565b005b6000546053565b6053608936600460b4565b60006093828460d5565b90505b92915050565b60006020828403121560ad57600080fd5b5035919050565b6000806040838503121560c657600080fd5b50508035926020909101359150565b80820180821115609657634e487b7160e01b600052601160045260246000fdfea2646970667358221220cc6f33af5f7ec5b57d41d01ce72579173dab804cd3bb07a01e8df8423ff7dbb964736f6c63430008140033","opcodes":"PUSH1 0x80 PUSH1 0x40 MSTORE CALLVALUE DUP1 ISZERO PUSH2 0x10 JUMPI PUSH1 0x0 DUP1 REVERT JUMPDEST POP PUSH2 0x12B DUP1 PUSH2 0x20 PUSH1 0x0 CODECOPY PUSH1 0x0 RETURN INVALID PUSH1 0x80 PUSH1 0x40 MSTORE CALLVALUE DUP1 ISZERO PUSH1 0xF JUMPI PUSH1 0x0 DUP1 REVERT JUMPDEST POP PUSH1 0x4 CALLDATASIZE LT PUSH1 0x46 JUMPI PUSH1 0x0 CALLDATALOAD PUSH1 0xE0 SHR DUP1 PUSH4 0x3FA4F245 EQ PUSH1 0x4B JUMPI DUP1 PUSH4 0x60FE47B1 EQ PUSH1 0x65 JUMPI DUP1 PUSH4 0x6D4CE63C EQ PUSH1 0x77 JUMPI DUP1 PUSH4 0x771602F7 EQ PUSH1 0x7E JUMPI JUMPDEST PUSH1 0x0 DUP1 REVERT JUMPDEST PUSH1 0x53 PUSH1 0x0 SLOAD DUP2 JUMP JUMPDEST PUSH1 0x40 MLOAD SWAP1 DUP2 MSTORE PUSH1 0x20 ADD PUSH1 0x40 MLOAD DUP1 SWAP2 SUB SWAP1 RETURN JUMPDEST PUSH1 0x75 PUSH1 0x70 CALLDATASIZE PUSH1 0x4 PUSH1 0x9C JUMP JUMPDEST PUSH1 0x0 SSTORE JUMP JUMPDEST STOP JUMPDEST PUSH1 0x0 SLOAD PUSH1 0x53 JUMP JUMPDEST PUSH1 0x53 PUSH1 0x89 CALLDATASIZE PUSH1 0x4 PUSH1 0xB4 JUMP JUMPDEST PUSH1 0x0 PUSH1 0x93 DUP3 DUP5 PUSH1 0xD5 JUMP JUMPDEST SWAP1 POP JUMPDEST SWAP3 SWAP2 POP POP JUMP JUMPDEST PUSH1 0x0 PUSH1 0x20 DUP3 DUP5 SUB SLT ISZERO PUSH1 0xAD JUMPI PUSH1 0x0 DUP1 REVERT JUMPDEST POP CALLDATALOAD SWAP2 SWAP1 POP JUMP JUMPDEST PUSH1 0x0 DUP1 PUSH1 0x40 DUP4 DUP6 SUB SLT ISZERO PUSH1 0xC6 JUMPI PUSH1 0x0 DUP1 REVERT JUMPDEST POP POP DUP1 CALLDATALOAD SWAP3 PUSH1 0x20 SWAP1 SWAP2 ADD CALLDATALOAD SWAP2 POP JUMP JUMPDEST DUP1 DUP3 ADD DUP1 DUP3 GT ISZERO PUSH1 0x96 JUMPI PUSH4 0x4E487B71 PUSH1 0xE0 SHL PUSH1 0x0 MSTORE PUSH1 0x11 PUSH1 0x4 MSTORE PUSH1 0x24 PUSH1 0x0 REVERT INVALID LOG2 PUSH5 0x6970667358 0x22 SLT KECCAK256 0xCC PUSH16 0x33AF5F7EC5B57D41D01CE72579173DAB DUP1 0x4C 0xD3 0xBB SMOD LOG0 0x1E DUP14 0xF8 TIMESTAMP EXTCODEHASH 0xF7 0xDB 0xB9 PUSH5 0x736F6C6343 STOP ADDMOD EQ STOP CALLER "},"methodIdentifiers":{"add(uint256,uint256)":"771602f7","get()":"6d4ce63c","set(uint256)":"60fe47b1","value()":"3fa4f245"}}}}}