{"learning/15-Visibility/Visibility.sol":{"Visibility":{"abi":[{"inputs":[{"internalType":"uint256","name":"x","type":"uint256"}],"name":"externalFn","outputs":[{"internalType":"uint256","name":"","type":"uint256"}],"stateMutability":"pure","type":"function"},{"inputs":[],"name":"getPrivate","outputs":[{"internalType":"uint256","name":"","type":"uint256"}],"stateMutability":"view","type":"function"},{"inputs":[],"name":"publicVar","outputs":[{"internalType":"uint256","name":"","type":"uint256"}],"stateMutability":"view","type":"function"},{"inputs":[{"internalType":"uint256","name":"x","type":"uint256"}],"name":"setInternal","outputs":[],"stateMutability":"nonpayable","type":"function"},{"inputs":[{"internalType":"uint256","name":"x","type":"uint256"}],"name":"setPrivate","outputs":[],"stateMutability":"nonpayable","type":"function"}],"evm":{"bytecode":{"linkReferences":{},"object":"608060405234801561001057600080fd5b5061012a806100206000396000f3fe6080604052348015600f57600080fd5b506004361060505760003560e01c80631151fad8146055578063246a1c1f14606f57806343a389ef14608157806389cfd71b1460905780639ad552201460a0575b600080fd5b605d60005481565b60405190815260200160405180910390f35b607f607a36600460b8565b600255565b005b605d608c36600460b8565b60a7565b607f609b36600460b8565b600155565b600154605d565b600060b282600260d0565b92915050565b60006020828403121560c957600080fd5b5035919050565b808202811582820484141760b257634e487b7160e01b600052601160045260246000fdfea264697066735822122034c73abfbad2b3227012451e2e5b4fbae103ab3befff8b81783e0034de8069c564736f6c63430008140033","opcodes":"PUSH1 0x80 PUSH1 0x40 MSTORE CALLVALUE DUP1 ISZERO PUSH2 0x10 JUMPI PUSH1 0x0 DUP1 REVERT JUMPDEST POP PUSH2 0x12A DUP1 PUSH2 0x20 PUSH1 0x0 CODECOPY PUSH1 0x0 RETURN INVALID PUSH1 0x80 PUSH1 0x40 MSTORE CALLVALUE DUP1 ISZERO PUSH1 0xF JUMPI PUSH1 0x0 DUP1 REVERT JUMPDEST POP PUSH1 0x4 CALLDATASIZE LT PUSH1 0x50 JUMPI PUSH1 0x0 CALLDATALOAD PUSH1 0xE0 SHR DUP1 PUSH4 0x1151FAD8 EQ PUSH1 0x55 JUMPI DUP1 PUSH4 0x246A1C1F EQ PUSH1 0x6F JUMPI DUP1 PUSH4 0x43A389EF EQ PUSH1 0x81 JUMPI DUP1 PUSH4 0x89CFD71B EQ PUSH1 0x90 JUMPI DUP1 PUSH4 0x9AD55220 EQ PUSH1 0xA0 JUMPI JUMPDEST PUSH1 0x0 DUP1 REVERT JUMPDEST PUSH1 0x5D PUSH1 0x0 SLOAD DUP2 JUMP JUMPDEST PUSH1 0x40 MLOAD SWAP1 DUP2 MSTORE PUSH1 0x20 ADD PUSH1 0x40 MLOAD DUP1 SWAP2 SUB SWAP1 RETURN JUMPDEST PUSH1 0x7F PUSH1 0x7A CALLDATASIZE PUSH1 0x4 PUSH1 0xB8 JUMP JUMPDEST PUSH1 0x2 SSTORE JUMP JUMPDEST STOP JUMPDEST PUSH1 0x5D PUSH1 0x8C CALLDATASIZE PUSH1 0x4 PUSH1 0xB8 JUMP JUMPDEST PUSH1 0xA7 JUMP JUMPDEST PUSH1 0x7F PUSH1 0x9B CALLDATASIZE PUSH1 0x4 PUSH1 0xB8 JUMP JUMPDEST PUSH1 0x1 SSTORE JUMP JUMPDEST PUSH1 0x1 SLOAD PUSH1 0x5D JUMP JUMPDEST PUSH1 0x0 PUSH1 0xB2 DUP3 PUSH1 0x2 PUSH1 0xD0 JUMP JUMPDEST SWAP3 SWAP2 POP POP JUMP JUMPDEST PUSH1 0x0 PUSH1 0x20 DUP3 DUP5 SUB SLT ISZERO PUSH1 0xC9 JUMPI PUSH1 0x0 DUP1 REVERT JUMPDEST POP CALLDATALOAD SWAP2 SWAP1 POP JUMP JUMPDEST DUP1 DUP3 MUL DUP2 ISZERO DUP3 DUP3 DIV DUP5 EQ OR PUSH1 0xB2 JUMPI PUSH4 0x4E487B71 PUSH1 0xE0 SHL PUSH1 0x0 MSTORE PUSH1 0x11 PUSH1 0x4 MSTORE PUSH1 0x24 PUSH1 0x0 REVERT INVALID LOG2 PUSH5 0x6970667358 0x22 SLT KECCAK256 CALLVALUE 0xC7 GASPRICE 0xBF 0xBA 0xD2 0xB3 0x22 PUSH17 0x12451E2E5B4FBAE103AB3BEFFF8B81783E STOP CALLVALUE 0xDE DUP1 PUSH10 0xC564736F6C6343000814 STOP CALLER "},"methodIdentifiers":{"externalFn(uint256)":"43a389ef","getPrivate()":"9ad55220","publicVar()":"1151fad8","setInternal(uint256)":"246a1c1f","setPrivate(uint256)":"89cfd71b"}}}}}