{"learning/12-Storage-Locations/StorageLocations.sol":{"StorageLocations":{"abi":[{"inputs":[{"internalType":"string","name":"a","type":"string"},{"internalType":"string","name":"b","type":"string"}],"name":"concat","outputs":[{"internalType":"string","name":"","type":"string"}],"stateMutability":"pure","type":"function"},{"inputs":[],"name":"getCopy","outputs":[{"internalType":"string","name":"","type":"string"}],"stateMutability":"view","type":"function"},{"inputs":[{"internalType":"string","name":"_input","type":"string"}],"name":"set","outputs":[],"stateMutability":"nonpayable","type":"function"},{"inputs":[],"name":"stored","outputs":[{"internalType":"string","name":"","type":"string"}],"stateMutability":"view","type":"function"}],"evm":{"bytecode":{"linkReferences":{},"object":"608060405234801561001057600080fd5b506104ff806100206000396000f3fe608060405234801561001057600080fd5b506004361061004c5760003560e01c806345636e3e146100515780634ed3885e1461006f57806389c19ddb14610084578063e582dd3114610097575b600080fd5b61005961009f565b6040516100669190610203565b60405180910390f35b61008261007d36600461029a565b610131565b005b6100596100923660046102dc565b610143565b610059610175565b6060600080546100ae90610348565b80601f01602080910402602001604051908101604052809291908181526020018280546100da90610348565b80156101275780601f106100fc57610100808354040283529160200191610127565b820191906000526020600020905b81548152906001019060200180831161010a57829003601f168201915b5050505050905090565b600061013e8284836103e6565b505050565b60608484848460405160200161015c94939291906104a7565b6040516020818303038152906040529050949350505050565b6000805461018290610348565b80601f01602080910402602001604051908101604052809291908181526020018280546101ae90610348565b80156101fb5780601f106101d0576101008083540402835291602001916101fb565b820191906000526020600020905b8154815290600101906020018083116101de57829003601f168201915b505050505081565b600060208083528351808285015260005b8181101561023057858101830151858201604001528201610214565b506000604082860101526040601f19601f8301168501019250505092915050565b60008083601f84011261026357600080fd5b50813567ffffffffffffffff81111561027b57600080fd5b60208301915083602082850101111561029357600080fd5b9250929050565b600080602083850312156102ad57600080fd5b823567ffffffffffffffff8111156102c457600080fd5b6102d085828601610251565b90969095509350505050565b600080600080604085870312156102f257600080fd5b843567ffffffffffffffff8082111561030a57600080fd5b61031688838901610251565b9096509450602087013591508082111561032f57600080fd5b5061033c87828801610251565b95989497509550505050565b600181811c9082168061035c57607f821691505b60208210810361037c57634e487b7160e01b600052602260045260246000fd5b50919050565b634e487b7160e01b600052604160045260246000fd5b601f82111561013e57600081815260208120601f850160051c810160208610156103bf5750805b601f850160051c820191505b818110156103de578281556001016103cb565b505050505050565b67ffffffffffffffff8311156103fe576103fe610382565b6104128361040c8354610348565b83610398565b6000601f841160018114610446576000851561042e5750838201355b600019600387901b1c1916600186901b1783556104a0565b600083815260209020601f19861690835b828110156104775786850135825560209485019460019092019101610457565b50868210156104945760001960f88860031b161c19848701351681555b505060018560011b0183555b5050505050565b838582376000848201600081528385823760009301928352509094935050505056fea26469706673582212204896f1083fb555fe990685d5d5467303ce9d54ef3f62fc953b1139ac5073fa1864736f6c63430008140033","opcodes":"PUSH1 0x80 PUSH1 0x40 MSTORE CALLVALUE DUP1 ISZERO PUSH2 0x10 JUMPI PUSH1 0x0 DUP1 REVERT JUMPDEST POP PUSH2 0x4FF DUP1 PUSH2 0x20 PUSH1 0x0 CODECOPY PUSH1 0x0 RETURN INVALID PUSH1 0x80 PUSH1 0x40 MSTORE CALLVALUE DUP1 ISZERO PUSH2 0x10 JUMPI PUSH1 0x0 DUP1 REVERT JUMPDEST POP PUSH1 0x4 CALLDATASIZE LT PUSH2 0x4C JUMPI PUSH1 0x0 CALLDATALOAD PUSH1 0xE0 SHR DUP1 PUSH4 0x45636E3E EQ PUSH2 0x51 JUMPI DUP1 PUSH4 0x4ED3885E EQ PUSH2 0x6F JUMPI DUP1 PUSH4 0x89C19DDB EQ PUSH2 0x84 JUMPI DUP1 PUSH4 0xE582DD31 EQ PUSH2 0x97 JUMPI JUMPDEST PUSH1 0x0 DUP1 REVERT JUMPDEST PUSH2 0x59 PUSH2 0x9F JUMP JUMPDEST PUSH1 0x40 MLOAD PUSH2 0x66 SWAP2 SWAP1 PUSH2 0x203 JUMP JUMPDEST PUSH1 0x40 MLOAD DUP1 SWAP2 SUB SWAP1 RETURN JUMPDEST PUSH2 0x82 PUSH2 0x7D CALLDATASIZE PUSH1 0x4 PUSH2 0x29A JUMP JUMPDEST PUSH2 0x131 JUMP JUMPDEST STOP JUMPDEST PUSH2 0x59 PUSH2 0x92 CALLDATASIZE PUSH1 0x4 PUSH2 0x2DC JUMP JUMPDEST PUSH2 0x143 JUMP JUMPDEST PUSH2 0x59 PUSH2 0x175 JUMP JUMPDEST PUSH1 0x60 PUSH1 0x0 DUP1 SLOAD PUSH2 0xAE SWAP1 PUSH2 0x348 JUMP JUMPDEST DUP1 PUSH1 0x1F ADD PUSH1 0x20 DUP1 SWAP2 DIV MUL PUSH1 0x20 ADD PUSH1 0x40 MLOAD SWAP1 DUP2 ADD PUSH1 0x40 MSTORE DUP1 SWAP3 SWAP2 SWAP1 DUP2 DUP2 MSTORE PUSH1 0x20 ADD DUP3 DUP1 SLOAD PUSH2 0xDA SWAP1 PUSH2 0x348 JUMP JUMPDEST DUP1 ISZERO PUSH2 0x127 JUMPI DUP1 PUSH1 0x1F LT PUSH2 0xFC JUMPI PUSH2 0x100 DUP1 DUP4 SLOAD DIV MUL DUP4 MSTORE SWAP2 PUSH1 0x20 ADD SWAP2 PUSH2 0x127 JUMP JUMPDEST DUP3 ADD SWAP2 SWAP1 PUSH1 0x0 MSTORE PUSH1 0x20 PUSH1 0x0 KECCAK256 SWAP1 JUMPDEST DUP2 SLOAD DUP2 MSTORE SWAP1 PUSH1 0x1 ADD SWAP1 PUSH1 0x20 ADD DUP1 DUP4 GT PUSH2 0x10A JUMPI DUP3 SWAP1 SUB PUSH1 0x1F AND DUP3 ADD SWAP2 JUMPDEST POP POP POP POP POP SWAP1 POP SWAP1 JUMP JUMPDEST PUSH1 0x0 PUSH2 0x13E DUP3 DUP5 DUP4 PUSH2 0x3E6 JUMP JUMPDEST POP POP POP JUMP JUMPDEST PUSH1 0x60 DUP5 DUP5 DUP5 DUP5 PUSH1 0x40 MLOAD PUSH1 0x20 ADD PUSH2 0x15C SWAP5 SWAP4 SWAP3 SWAP2 SWAP1 PUSH2 0x4A7 JUMP JUMPDEST PUSH1 0x40 MLOAD PUSH1 0x20 DUP2 DUP4 SUB SUB DUP2 MSTORE SWAP1 PUSH1 0x40 MSTORE SWAP1 POP SWAP5 SWAP4 POP POP POP POP JUMP JUMPDEST PUSH1 0x0 DUP1 SLOAD PUSH2 0x182 SWAP1 PUSH2 0x348 JUMP JUMPDEST DUP1 PUSH1 0x1F ADD PUSH1 0x20 DUP1 SWAP2 DIV MUL PUSH1 0x20 ADD PUSH1 0x40 MLOAD SWAP1 DUP2 ADD PUSH1 0x40 MSTORE DUP1 SWAP3 SWAP2 SWAP1 DUP2 DUP2 MSTORE PUSH1 0x20 ADD DUP3 DUP1 SLOAD PUSH2 0x1AE SWAP1 PUSH2 0x348 JUMP JUMPDEST DUP1 ISZERO PUSH2 0x1FB JUMPI DUP1 PUSH1 0x1F LT PUSH2 0x1D0 JUMPI PUSH2 0x100 DUP1 DUP4 SLOAD DIV MUL DUP4 MSTORE SWAP2 PUSH1 0x20 ADD SWAP2 PUSH2 0x1FB JUMP JUMPDEST DUP3 ADD SWAP2 SWAP1 PUSH1 0x0 MSTORE PUSH1 0x20 PUSH1 0x0 KECCAK256 SWAP1 JUMPDEST DUP2 SLOAD DUP2 MSTORE SWAP1 PUSH1 0x1 ADD SWAP1 PUSH1 0x20 ADD DUP1 DUP4 GT PUSH2 0x1DE JUMPI DUP3 SWAP1 SUB PUSH1 0x1F AND DUP3 ADD SWAP2 JUMPDEST POP POP POP POP POP DUP2 JUMP JUMPDEST PUSH1 0x0 PUSH1 0x20 DUP1 DUP4 MSTORE DUP4 MLOAD DUP1 DUP3 DUP6 ADD MSTORE PUSH1 0x0 JUMPDEST DUP2 DUP2 LT ISZERO PUSH2 0x230 JUMPI DUP6 DUP2 ADD DUP4 ADD MLOAD DUP6 DUP3 ADD PUSH1 0x40 ADD MSTORE DUP3 ADD PUSH2 0x214 JUMP JUMPDEST POP PUSH1 0x0 PUSH1 0x40 DUP3 DUP7 ADD ADD MSTORE PUSH1 0x40 PUSH1 0x1F NOT PUSH1 0x1F DUP4 ADD AND DUP6 ADD ADD SWAP3 POP POP POP SWAP3 SWAP2 POP POP JUMP JUMPDEST PUSH1 0x0 DUP1 DUP4 PUSH1 0x1F DUP5 ADD SLT PUSH2 0x263 JUMPI PUSH1 0x0 DUP1 REVERT JUMPDEST POP DUP2 CALLDATALOAD PUSH8 0xFFFFFFFFFFFFFFFF DUP2 GT ISZERO PUSH2 0x27B JUMPI PUSH1 0x0 DUP1 REVERT JUMPDEST PUSH1 0x20 DUP4 ADD SWAP2 POP DUP4 PUSH1 0x20 DUP3 DUP6 ADD ADD GT ISZERO PUSH2 0x293 JUMPI PUSH1 0x0 DUP1 REVERT JUMPDEST SWAP3 POP SWAP3 SWAP1 POP JUMP JUMPDEST PUSH1 0x0 DUP1 PUSH1 0x20 DUP4 DUP6 SUB SLT ISZERO PUSH2 0x2AD JUMPI PUSH1 0x0 DUP1 REVERT JUMPDEST DUP3 CALLDATALOAD PUSH8 0xFFFFFFFFFFFFFFFF DUP2 GT ISZERO PUSH2 0x2C4 JUMPI PUSH1 0x0 DUP1 REVERT JUMPDEST PUSH2 0x2D0 DUP6 DUP3 DUP7 ADD PUSH2 0x251 JUMP JUMPDEST SWAP1 SWAP7 SWAP1 SWAP6 POP SWAP4 POP POP POP POP JUMP JUMPDEST PUSH1 0x0 DUP1 PUSH1 0x0 DUP1 PUSH1 0x40 DUP6 DUP8 SUB SLT ISZERO PUSH2 0x2F2 JUMPI PUSH1 0x0 DUP1 REVERT JUMPDEST DUP5 CALLDATALOAD PUSH8 0xFFFFFFFFFFFFFFFF DUP1 DUP3 GT ISZERO PUSH2 0x30A JUMPI PUSH1 0x0 DUP1 REVERT JUMPDEST PUSH2 0x316 DUP9 DUP4 DUP10 ADD PUSH2 0x251 JUMP JUMPDEST SWAP1 SWAP7 POP SWAP5 POP PUSH1 0x20 DUP8 ADD CALLDATALOAD SWAP2 POP DUP1 DUP3 GT ISZERO PUSH2 0x32F JUMPI PUSH1 0x0 DUP1 REVERT JUMPDEST POP PUSH2 0x33C DUP8 DUP3 DUP9 ADD PUSH2 0x251 JUMP JUMPDEST SWAP6 SWAP9 SWAP5 SWAP8 POP SWAP6 POP POP POP POP JUMP JUMPDEST PUSH1 0x1 DUP2 DUP2 SHR SWAP1 DUP3 AND DUP1 PUSH2 0x35C JUMPI PUSH1 0x7F DUP3 AND SWAP2 POP JUMPDEST PUSH1 0x20 DUP3 LT DUP2 SUB PUSH2 0x37C JUMPI PUSH4 0x4E487B71 PUSH1 0xE0 SHL PUSH1 0x0 MSTORE PUSH1 0x22 PUSH1 0x4 MSTORE PUSH1 0x24 PUSH1 0x0 REVERT JUMPDEST POP SWAP2 SWAP1 POP JUMP JUMPDEST PUSH4 0x4E487B71 PUSH1 0xE0 SHL PUSH1 0x0 MSTORE PUSH1 0x41 PUSH1 0x4 MSTORE PUSH1 0x24 PUSH1 0x0 REVERT JUMPDEST PUSH1 0x1F DUP3 GT ISZERO PUSH2 0x13E JUMPI PUSH1 0x0 DUP2 DUP2 MSTORE PUSH1 0x20 DUP2 KECCAK256 PUSH1 0x1F DUP6 ADD PUSH1 0x5 SHR DUP2 ADD PUSH1 0x20 DUP7 LT ISZERO PUSH2 0x3BF JUMPI POP DUP1 JUMPDEST PUSH1 0x1F DUP6 ADD PUSH1 0x5 SHR DUP3 ADD SWAP2 POP JUMPDEST DUP2 DUP2 LT ISZERO PUSH2 0x3DE JUMPI DUP3 DUP2 SSTORE PUSH1 0x1 ADD PUSH2 0x3CB JUMP JUMPDEST POP POP POP POP POP POP JUMP JUMPDEST PUSH8 0xFFFFFFFFFFFFFFFF DUP4 GT ISZERO PUSH2 0x3FE JUMPI PUSH2 0x3FE PUSH2 0x382 JUMP JUMPDEST PUSH2 0x412 DUP4 PUSH2 0x40C DUP4 SLOAD PUSH2 0x348 JUMP JUMPDEST DUP4 PUSH2 0x398 JUMP JUMPDEST PUSH1 0x0 PUSH1 0x1F DUP5 GT PUSH1 0x1 DUP2 EQ PUSH2 0x446 JUMPI PUSH1 0x0 DUP6 ISZERO PUSH2 0x42E JUMPI POP DUP4 DUP3 ADD CALLDATALOAD JUMPDEST PUSH1 0x0 NOT PUSH1 0x3 DUP8 SWAP1 SHL SHR NOT AND PUSH1 0x1 DUP7 SWAP1 SHL OR DUP4 SSTORE PUSH2 0x4A0 JUMP JUMPDEST PUSH1 0x0 DUP4 DUP2 MSTORE PUSH1 0x20 SWAP1 KECCAK256 PUSH1 0x1F NOT DUP7 AND SWAP1 DUP4 JUMPDEST DUP3 DUP2 LT ISZERO PUSH2 0x477 JUMPI DUP7 DUP6 ADD CALLDATALOAD DUP3 SSTORE PUSH1 0x20 SWAP5 DUP6 ADD SWAP5 PUSH1 0x1 SWAP1 SWAP3 ADD SWAP2 ADD PUSH2 0x457 JUMP JUMPDEST POP DUP7 DUP3 LT ISZERO PUSH2 0x494 JUMPI PUSH1 0x0 NOT PUSH1 0xF8 DUP9 PUSH1 0x3 SHL AND SHR NOT DUP5 DUP8 ADD CALLDATALOAD AND DUP2 SSTORE JUMPDEST POP POP PUSH1 0x1 DUP6 PUSH1 0x1 SHL ADD DUP4 SSTORE JUMPDEST POP POP POP POP POP JUMP JUMPDEST DUP4 DUP6 DUP3 CALLDATACOPY PUSH1 0x0 DUP5 DUP3 ADD PUSH1 0x0 DUP2 MSTORE DUP4 DUP6 DUP3 CALLDATACOPY PUSH1 0x0 SWAP4 ADD SWAP3 DUP4 MSTORE POP SWAP1 SWAP5 SWAP4 POP POP POP POP JUMP INVALID LOG2 PUSH5 0x6970667358 0x22 SLT KECCAK256 BASEFEE SWAP7 CALL ADDMOD EXTCODEHASH 0xB5 SSTORE INVALID SWAP10 MOD DUP6 0xD5 0xD5 CHAINID PUSH20 0x3CE9D54EF3F62FC953B1139AC5073FA1864736F PUSH13 0x63430008140033000000000000 "},"methodIdentifiers":{"concat(string,string)":"89c19ddb","getCopy()":"45636e3e","set(string)":"4ed3885e","stored()":"e582dd31"}}}}}