{"learning/1-Intro/Intro.sol":{"Intro":{"abi":[{"inputs":[],"name":"helloWorld","outputs":[{"internalType":"string","name":"","type":"string"}],"stateMutability":"view","type":"function"},{"inputs":[],"name":"sayHello","outputs":[{"internalType":"string","name":"","type":"string"}],"stateMutability":"pure","type":"function"}],"evm":{"bytecode":{"linkReferences":{},"object":"608060405234801561001057600080fd5b5061011c806100206000396000f3fe6080604052348015600f57600080fd5b506004361060325760003560e01c8063c605f76c146037578063ef5fb05b146074575b600080fd5b60606040518060400160405280600b81526020016a12195b1b1bc815dbdc9b1960aa1b81525081565b604051606b9190609a565b60405180910390f35b60408051808201909152600b81526a12195b1b1bc815dbdc9b1960aa1b60208201526060565b600060208083528351808285015260005b8181101560c55785810183015185820160400152820160ab565b506000604082860101526040601f19601f830116850101925050509291505056fea264697066735822122011d9b337a07db68155b18cbd1c62ac9f543538813c4e05a127e357245728f4ef64736f6c63430008140033","opcodes":"PUSH1 0x80 PUSH1 0x40 MSTORE CALLVALUE DUP1 ISZERO PUSH2 0x10 JUMPI PUSH1 0x0 DUP1 REVERT JUMPDEST POP PUSH2 0x11C DUP1 PUSH2 0x20 PUSH1 0x0 CODECOPY PUSH1 0x0 RETURN INVALID PUSH1 0x80 PUSH1 0x40 MSTORE CALLVALUE DUP1 ISZERO PUSH1 0xF JUMPI PUSH1 0x0 DUP1 REVERT JUMPDEST POP PUSH1 0x4 CALLDATASIZE LT PUSH1 0x32 JUMPI PUSH1 0x0 CALLDATALOAD PUSH1 0xE0 SHR DUP1 PUSH4 0xC605F76C EQ PUSH1 0x37 JUMPI DUP1 PUSH4 0xEF5FB05B EQ PUSH1 0x74 JUMPI JUMPDEST PUSH1 0x0 DUP1 REVERT JUMPDEST PUSH1 0x60 PUSH1 0x40 MLOAD DUP1 PUSH1 0x40 ADD PUSH1 0x40 MSTORE DUP1 PUSH1 0xB DUP2 MSTORE PUSH1 0x20 ADD PUSH11 0x12195B1B1BC815DBDC9B19 PUSH1 0xAA SHL DUP2 MSTORE POP DUP2 JUMP JUMPDEST PUSH1 0x40 MLOAD PUSH1 0x6B SWAP2 SWAP1 PUSH1 0x9A JUMP JUMPDEST PUSH1 0x40 MLOAD DUP1 SWAP2 SUB SWAP1 RETURN JUMPDEST PUSH1 0x40 DUP1 MLOAD DUP1 DUP3 ADD SWAP1 SWAP2 MSTORE PUSH1 0xB DUP2 MSTORE PUSH11 0x12195B1B1BC815DBDC9B19 PUSH1 0xAA SHL PUSH1 0x20 DUP3 ADD MSTORE PUSH1 0x60 JUMP JUMPDEST PUSH1 0x0 PUSH1 0x20 DUP1 DUP4 MSTORE DUP4 MLOAD DUP1 DUP3 DUP6 ADD MSTORE PUSH1 0x0 JUMPDEST DUP2 DUP2 LT ISZERO PUSH1 0xC5 JUMPI DUP6 DUP2 ADD DUP4 ADD MLOAD DUP6 DUP3 ADD PUSH1 0x40 ADD MSTORE DUP3 ADD PUSH1 0xAB JUMP JUMPDEST POP PUSH1 0x0 PUSH1 0x40 DUP3 DUP7 ADD ADD MSTORE PUSH1 0x40 PUSH1 0x1F NOT PUSH1 0x1F DUP4 ADD AND DUP6 ADD ADD SWAP3 POP POP POP SWAP3 SWAP2 POP POP JUMP INVALID LOG2 PUSH5 0x6970667358 0x22 SLT KECCAK256 GT 0xD9 0xB3 CALLDATACOPY LOG0 PUSH30 0xB68155B18CBD1C62AC9F543538813C4E05A127E357245728F4EF64736F6C PUSH4 0x43000814 STOP CALLER "},"methodIdentifiers":{"helloWorld()":"c605f76c","sayHello()":"ef5fb05b"}}}}}