{"learning/7-Array/Array.sol":{"Array":{"abi":[{"inputs":[{"internalType":"uint256","name":"","type":"uint256"}],"name":"dynamicArray","outputs":[{"internalType":"uint256","name":"","type":"uint256"}],"stateMutability":"view","type":"function"},{"inputs":[{"internalType":"uint256","name":"","type":"uint256"}],"name":"fixedArray","outputs":[{"internalType":"uint256","name":"","type":"uint256"}],"stateMutability":"view","type":"function"},{"inputs":[],"name":"getLength","outputs":[{"internalType":"uint256","name":"","type":"uint256"}],"stateMutability":"view","type":"function"},{"inputs":[{"internalType":"uint256","name":"x","type":"uint256"}],"name":"push","outputs":[],"stateMutability":"nonpayable","type":"function"},{"inputs":[{"internalType":"uint256","name":"index","type":"uint256"},{"internalType":"uint256","name":"value","type":"uint256"}],"name":"setFixed","outputs":[],"stateMutability":"nonpayable","type":"function"}],"evm":{"bytecode":{"linkReferences":{},"object":"608060405234801561001057600080fd5b50610211806100206000396000f3fe608060405234801561001057600080fd5b50600436106100575760003560e01c80633a92e6241461005c578063959ac484146100715780639a5009ac146100b45780639a9bdca7146100d9578063be1c766b146100ec575b600080fd5b61006f61006a36600461018a565b6100f4565b005b61006f61007f3660046101ac565b600380546001810182556000919091527fc2575a0e9e593c00f959f8c92f12db2869c3395a3b0502d05e2516446f71f85b0155565b6100c76100c23660046101ac565b610152565b60405190815260200160405180910390f35b6100c76100e73660046101ac565b610169565b6003546100c7565b600382106101385760405162461bcd60e51b815260206004820152600d60248201526c4f7574206f6620626f756e647360981b604482015260640160405180910390fd5b806000836003811061014c5761014c6101c5565b01555050565b6000816003811061016257600080fd5b0154905081565b6003818154811061017957600080fd5b600091825260209091200154905081565b6000806040838503121561019d57600080fd5b50508035926020909101359150565b6000602082840312156101be57600080fd5b5035919050565b634e487b7160e01b600052603260045260246000fdfea26469706673582212201c61ed031c5dd5f2b2fce633c3a3be78bff513fad7ffab89f14fe6e29c28e02464736f6c63430008140033","opcodes":"PUSH1 0x80 PUSH1 0x40 MSTORE CALLVALUE DUP1 ISZERO PUSH2 0x10 JUMPI PUSH1 0x0 DUP1 REVERT JUMPDEST POP PUSH2 0x211 DUP1 PUSH2 0x20 PUSH1 0x0 CODECOPY PUSH1 0x0 RETURN INVALID PUSH1 0x80 PUSH1 0x40 MSTORE CALLVALUE DUP1 ISZERO PUSH2 0x10 JUMPI PUSH1 0x0 DUP1 REVERT JUMPDEST POP PUSH1 0x4 CALLDATASIZE LT PUSH2 0x57 JUMPI PUSH1 0x0 CALLDATALOAD PUSH1 0xE0 SHR DUP1 PUSH4 0x3A92E624 EQ PUSH2 0x5C JUMPI DUP1 PUSH4 0x959AC484 EQ PUSH2 0x71 JUMPI DUP1 PUSH4 0x9A5009AC EQ PUSH2 0xB4 JUMPI DUP1 PUSH4 0x9A9BDCA7 EQ PUSH2 0xD9 JUMPI DUP1 PUSH4 0xBE1C766B EQ PUSH2 0xEC JUMPI JUMPDEST PUSH1 0x0 DUP1 REVERT JUMPDEST PUSH2 0x6F PUSH2 0x6A CALLDATASIZE PUSH1 0x4 PUSH2 0x18A JUMP JUMPDEST PUSH2 0xF4 JUMP JUMPDEST STOP JUMPDEST PUSH2 0x6F PUSH2 0x7F CALLDATASIZE PUSH1 0x4 PUSH2 0x1AC JUMP JUMPDEST PUSH1 0x3 DUP1 SLOAD PUSH1 0x1 DUP2 ADD DUP3 SSTORE PUSH1 0x0 SWAP2 SWAP1 SWAP2 MSTORE PUSH32 0xC2575A0E9E593C00F959F8C92F12DB2869C3395A3B0502D05E2516446F71F85B ADD SSTORE JUMP JUMPDEST PUSH2 0xC7 PUSH2 0xC2 CALLDATASIZE PUSH1 0x4 PUSH2 0x1AC JUMP JUMPDEST PUSH2 0x152 JUMP JUMPDEST PUSH1 0x40 MLOAD SWAP1 DUP2 MSTORE PUSH1 0x20 ADD PUSH1 0x40 MLOAD DUP1 SWAP2 SUB SWAP1 RETURN JUMPDEST PUSH2 0xC7 PUSH2 0xE7 CALLDATASIZE PUSH1 0x4 PUSH2 0x1AC JUMP JUMPDEST PUSH2 0x169 JUMP JUMPDEST PUSH1 0x3 SLOAD PUSH2 0xC7 JUMP JUMPDEST PUSH1 0x3 DUP3 LT PUSH2 0x138 JUMPI PUSH1 0x40 MLOAD PUSH3 0x461BCD PUSH1 0xE5 SHL DUP2 MSTORE PUSH1 0x20 PUSH1 0x4 DUP3 ADD MSTORE PUSH1 0xD PUSH1 0x24 DUP3 ADD MSTORE PUSH13 0x4F7574206F6620626F756E6473 PUSH1 0x98 SHL PUSH1 0x44 DUP3 ADD MSTORE PUSH1 0x64 ADD PUSH1 0x40 MLOAD DUP1 SWAP2 SUB SWAP1 REVERT JUMPDEST DUP1 PUSH1 0x0 DUP4 PUSH1 0x3 DUP2 LT PUSH2 0x14C JUMPI PUSH2 0x14C PUSH2 0x1C5 JUMP JUMPDEST ADD SSTORE POP POP JUMP JUMPDEST PUSH1 0x0 DUP2 PUSH1 0x3 DUP2 LT PUSH2 0x162 JUMPI PUSH1 0x0 DUP1 REVERT JUMPDEST ADD SLOAD SWAP1 POP DUP2 JUMP JUMPDEST PUSH1 0x3 DUP2 DUP2 SLOAD DUP2 LT PUSH2 0x179 JUMPI PUSH1 0x0 DUP1 REVERT JUMPDEST PUSH1 0x0 SWAP2 DUP3 MSTORE PUSH1 0x20 SWAP1 SWAP2 KECCAK256 ADD SLOAD SWAP1 POP DUP2 JUMP JUMPDEST PUSH1 0x0 DUP1 PUSH1 0x40 DUP4 DUP6 SUB SLT ISZERO PUSH2 0x19D JUMPI PUSH1 0x0 DUP1 REVERT JUMPDEST POP POP DUP1 CALLDATALOAD SWAP3 PUSH1 0x20 SWAP1 SWAP2 ADD CALLDATALOAD SWAP2 POP JUMP JUMPDEST PUSH1 0x0 PUSH1 0x20 DUP3 DUP5 SUB SLT ISZERO PUSH2 0x1BE JUMPI PUSH1 0x0 DUP1 REVERT JUMPDEST POP CALLDATALOAD SWAP2 SWAP1 POP JUMP JUMPDEST PUSH4 0x4E487B71 PUSH1 0xE0 SHL PUSH1 0x0 MSTORE PUSH1 0x32 PUSH1 0x4 MSTORE PUSH1 0x24 PUSH1 0x0 REVERT INVALID LOG2 PUSH5 0x6970667358 0x22 SLT KECCAK256 SHR PUSH2 0xED03 SHR 0x5D 0xD5 CALLCODE 0xB2 0xFC 0xE6 CALLER 0xC3 LOG3 0xBE PUSH25 0xBFF513FAD7FFAB89F14FE6E29C28E02464736F6C6343000814 STOP CALLER "},"methodIdentifiers":{"dynamicArray(uint256)":"9a9bdca7","fixedArray(uint256)":"9a5009ac","getLength()":"be1c766b","push(uint256)":"959ac484","setFixed(uint256,uint256)":"3a92e624"}}}}}