{
  "_format": "hh-sol-artifact-1",
  "contractName": "Loops",
  "sourceName": "learning/8-Loops/Loops.sol",
  "abi": [
    {
      "inputs": [
        {
          "internalType": "uint256[]",
          "name": "_numbers",
          "type": "uint256[]"
        }
      ],
      "name": "addNumbers",
      "outputs": [],
      "stateMutability": "nonpayable",
      "type": "function"
    },
    {
      "inputs": [
        {
          "internalType": "uint256",
          "name": "",
          "type": "uint256"
        }
      ],
      "name": "numbers",
      "outputs": [
        {
          "internalType": "uint256",
          "name": "",
          "type": "uint256"
        }
      ],
      "stateMutability": "view",
      "type": "function"
    },
    {
      "inputs": [],
      "name": "sum",
      "outputs": [
        {
          "internalType": "uint256",
          "name": "total",
          "type": "uint256"
        }
      ],
      "stateMutability": "view",
      "type": "function"
    }
  ],
  "bytecode": "0x608060405234801561001057600080fd5b50610272806100206000396000f3fe608060405234801561001057600080fd5b50600436106100415760003560e01c8063853255cc14610046578063b9a0386814610060578063d39fa23314610075575b600080fd5b61004e610088565b60405190815260200160405180910390f35b61007361006e366004610150565b6100d7565b005b61004e6100833660046101c5565b61012f565b6000805b6000548110156100d357600081815481106100a9576100a96101de565b9060005260206000200154826100bf919061020a565b9150806100cb81610223565b91505061008c565b5090565b60005b8181101561012a5760008383838181106100f6576100f66101de565b835460018101855560009485526020948590209190940292909201359190920155508061012281610223565b9150506100da565b505050565b6000818154811061013f57600080fd5b600091825260209091200154905081565b6000806020838503121561016357600080fd5b823567ffffffffffffffff8082111561017b57600080fd5b818501915085601f83011261018f57600080fd5b81358181111561019e57600080fd5b8660208260051b85010111156101b357600080fd5b60209290920196919550909350505050565b6000602082840312156101d757600080fd5b5035919050565b634e487b7160e01b600052603260045260246000fd5b634e487b7160e01b600052601160045260246000fd5b8082018082111561021d5761021d6101f4565b92915050565b600060018201610235576102356101f4565b506001019056fea26469706673582212206827718a2da96a6b8d10c9d3945edbe11ea2e8dadc9a16c5a0eebdc8655c081b64736f6c63430008140033",
  "linkReferences": {},
  "deployedLinkReferences": {}
}