{
  "_format": "hh-sol-artifact-1",
  "contractName": "AvalancheGreeter",
  "sourceName": "contracts/AvalancheGreeter.sol",
  "abi": [
    {
      "inputs": [
        {
          "internalType": "string",
          "name": "_greeting",
          "type": "string"
        }
      ],
      "stateMutability": "nonpayable",
      "type": "constructor"
    },
    {
      "anonymous": false,
      "inputs": [
        {
          "indexed": false,
          "internalType": "string",
          "name": "oldGreeting",
          "type": "string"
        },
        {
          "indexed": false,
          "internalType": "string",
          "name": "newGreeting",
          "type": "string"
        }
      ],
      "name": "GreetingUpdated",
      "type": "event"
    },
    {
      "inputs": [],
      "name": "getGreeting",
      "outputs": [
        {
          "internalType": "string",
          "name": "",
          "type": "string"
        }
      ],
      "stateMutability": "view",
      "type": "function"
    },
    {
      "inputs": [],
      "name": "greeting",
      "outputs": [
        {
          "internalType": "string",
          "name": "",
          "type": "string"
        }
      ],
      "stateMutability": "view",
      "type": "function"
    },
    {
      "inputs": [],
      "name": "owner",
      "outputs": [
        {
          "internalType": "address",
          "name": "",
          "type": "address"
        }
      ],
      "stateMutability": "view",
      "type": "function"
    },
    {
      "inputs": [
        {
          "internalType": "string",
          "name": "_greeting",
          "type": "string"
        }
      ],
      "name": "setGreeting",
      "outputs": [],
      "stateMutability": "nonpayable",
      "type": "function"
    }
  ],
  "bytecode": "0x608060405234801561001057600080fd5b5060405161086a38038061086a83398101604081905261002f9161006a565b600061003b82826101bc565b5050600180546001600160a01b0319163317905561027b565b634e487b7160e01b600052604160045260246000fd5b6000602080838503121561007d57600080fd5b82516001600160401b038082111561009457600080fd5b818501915085601f8301126100a857600080fd5b8151818111156100ba576100ba610054565b604051601f8201601f19908116603f011681019083821181831017156100e2576100e2610054565b8160405282815288868487010111156100fa57600080fd5b600093505b8284101561011c57848401860151818501870152928501926100ff565b600086848301015280965050505050505092915050565b600181811c9082168061014757607f821691505b60208210810361016757634e487b7160e01b600052602260045260246000fd5b50919050565b601f8211156101b757600081815260208120601f850160051c810160208610156101945750805b601f850160051c820191505b818110156101b3578281556001016101a0565b5050505b505050565b81516001600160401b038111156101d5576101d5610054565b6101e9816101e38454610133565b8461016d565b602080601f83116001811461021e57600084156102065750858301515b600019600386901b1c1916600185901b1785556101b3565b600085815260208120601f198616915b8281101561024d5788860151825594840194600190910190840161022e565b508582101561026b5787850151600019600388901b60f8161c191681555b5050505050600190811b01905550565b6105e08061028a6000396000f3fe608060405234801561001057600080fd5b506004361061004c5760003560e01c80638da5cb5b14610051578063a413686214610081578063ef690cc014610096578063fe50cc72146100ab575b600080fd5b600154610064906001600160a01b031681565b6040516001600160a01b0390911681526020015b60405180910390f35b61009461008f366004610322565b6100b3565b005b61009e6101ec565b6040516100789190610419565b61009e61027a565b6001546001600160a01b031633146101115760405162461bcd60e51b815260206004820152601b60248201527f4f6e6c79206f776e65722063616e20736574206772656574696e670000000000604482015260640160405180910390fd5b600080805461011f90610433565b80601f016020809104026020016040519081016040528092919081815260200182805461014b90610433565b80156101985780601f1061016d57610100808354040283529160200191610198565b820191906000526020600020905b81548152906001019060200180831161017b57829003601f168201915b5050505050905081600090816101ae91906104bc565b507f372a0521710bf0c4c60e905edb769abc102778a689eba8f30c0526f23a2f0cb781836040516101e092919061057c565b60405180910390a15050565b600080546101f990610433565b80601f016020809104026020016040519081016040528092919081815260200182805461022590610433565b80156102725780601f1061024757610100808354040283529160200191610272565b820191906000526020600020905b81548152906001019060200180831161025557829003601f168201915b505050505081565b60606000805461028990610433565b80601f01602080910402602001604051908101604052809291908181526020018280546102b590610433565b80156103025780601f106102d757610100808354040283529160200191610302565b820191906000526020600020905b8154815290600101906020018083116102e557829003601f168201915b5050505050905090565b634e487b7160e01b600052604160045260246000fd5b60006020828403121561033457600080fd5b813567ffffffffffffffff8082111561034c57600080fd5b818401915084601f83011261036057600080fd5b8135818111156103725761037261030c565b604051601f8201601f19908116603f0116810190838211818310171561039a5761039a61030c565b816040528281528760208487010111156103b357600080fd5b826020860160208301376000928101602001929092525095945050505050565b6000815180845260005b818110156103f9576020818501810151868301820152016103dd565b506000602082860101526020601f19601f83011685010191505092915050565b60208152600061042c60208301846103d3565b9392505050565b600181811c9082168061044757607f821691505b60208210810361046757634e487b7160e01b600052602260045260246000fd5b50919050565b601f8211156104b757600081815260208120601f850160051c810160208610156104945750805b601f850160051c820191505b818110156104b3578281556001016104a0565b5050505b505050565b815167ffffffffffffffff8111156104d6576104d661030c565b6104ea816104e48454610433565b8461046d565b602080601f83116001811461051f57600084156105075750858301515b600019600386901b1c1916600185901b1785556104b3565b600085815260208120601f198616915b8281101561054e5788860151825594840194600190910190840161052f565b508582101561056c5787850151600019600388901b60f8161c191681555b5050505050600190811b01905550565b60408152600061058f60408301856103d3565b82810360208401526105a181856103d3565b9594505050505056fea2646970667358221220a35d713399bdaf547c2f8b982d0d5d32f13aee02868aab8c262c741ad07fec8564736f6c63430008140033",
  "linkReferences": {},
  "deployedLinkReferences": {}
}