{
  "_format": "hh-sol-artifact-1",
  "contractName": "StorageLocations",
  "sourceName": "learning/12-Storage-Locations/StorageLocations.sol",
  "abi": [
    {
      "inputs": [
        {
          "internalType": "string",
          "name": "a",
          "type": "string"
        },
        {
          "internalType": "string",
          "name": "b",
          "type": "string"
        }
      ],
      "name": "concat",
      "outputs": [
        {
          "internalType": "string",
          "name": "",
          "type": "string"
        }
      ],
      "stateMutability": "pure",
      "type": "function"
    },
    {
      "inputs": [],
      "name": "getCopy",
      "outputs": [
        {
          "internalType": "string",
          "name": "",
          "type": "string"
        }
      ],
      "stateMutability": "view",
      "type": "function"
    },
    {
      "inputs": [
        {
          "internalType": "string",
          "name": "_input",
          "type": "string"
        }
      ],
      "name": "set",
      "outputs": [],
      "stateMutability": "nonpayable",
      "type": "function"
    },
    {
      "inputs": [],
      "name": "stored",
      "outputs": [
        {
          "internalType": "string",
          "name": "",
          "type": "string"
        }
      ],
      "stateMutability": "view",
      "type": "function"
    }
  ],
  "bytecode": "0x608060405234801561001057600080fd5b506104ff806100206000396000f3fe608060405234801561001057600080fd5b506004361061004c5760003560e01c806345636e3e146100515780634ed3885e1461006f57806389c19ddb14610084578063e582dd3114610097575b600080fd5b61005961009f565b6040516100669190610203565b60405180910390f35b61008261007d36600461029a565b610131565b005b6100596100923660046102dc565b610143565b610059610175565b6060600080546100ae90610348565b80601f01602080910402602001604051908101604052809291908181526020018280546100da90610348565b80156101275780601f106100fc57610100808354040283529160200191610127565b820191906000526020600020905b81548152906001019060200180831161010a57829003601f168201915b5050505050905090565b600061013e8284836103e6565b505050565b60608484848460405160200161015c94939291906104a7565b6040516020818303038152906040529050949350505050565b6000805461018290610348565b80601f01602080910402602001604051908101604052809291908181526020018280546101ae90610348565b80156101fb5780601f106101d0576101008083540402835291602001916101fb565b820191906000526020600020905b8154815290600101906020018083116101de57829003601f168201915b505050505081565b600060208083528351808285015260005b8181101561023057858101830151858201604001528201610214565b506000604082860101526040601f19601f8301168501019250505092915050565b60008083601f84011261026357600080fd5b50813567ffffffffffffffff81111561027b57600080fd5b60208301915083602082850101111561029357600080fd5b9250929050565b600080602083850312156102ad57600080fd5b823567ffffffffffffffff8111156102c457600080fd5b6102d085828601610251565b90969095509350505050565b600080600080604085870312156102f257600080fd5b843567ffffffffffffffff8082111561030a57600080fd5b61031688838901610251565b9096509450602087013591508082111561032f57600080fd5b5061033c87828801610251565b95989497509550505050565b600181811c9082168061035c57607f821691505b60208210810361037c57634e487b7160e01b600052602260045260246000fd5b50919050565b634e487b7160e01b600052604160045260246000fd5b601f82111561013e57600081815260208120601f850160051c810160208610156103bf5750805b601f850160051c820191505b818110156103de578281556001016103cb565b505050505050565b67ffffffffffffffff8311156103fe576103fe610382565b6104128361040c8354610348565b83610398565b6000601f841160018114610446576000851561042e5750838201355b600019600387901b1c1916600186901b1783556104a0565b600083815260209020601f19861690835b828110156104775786850135825560209485019460019092019101610457565b50868210156104945760001960f88860031b161c19848701351681555b505060018560011b0183555b5050505050565b838582376000848201600081528385823760009301928352509094935050505056fea26469706673582212204896f1083fb555fe990685d5d5467303ce9d54ef3f62fc953b1139ac5073fa1864736f6c63430008140033",
  "linkReferences": {},
  "deployedLinkReferences": {}
}