{
  "_format": "hh-sol-artifact-1",
  "contractName": "LocalVariables",
  "sourceName": "learning/3-Local-Variables/LocalVariables.sol",
  "abi": [
    {
      "inputs": [
        {
          "internalType": "uint256",
          "name": "a",
          "type": "uint256"
        },
        {
          "internalType": "uint256",
          "name": "b",
          "type": "uint256"
        }
      ],
      "name": "add",
      "outputs": [
        {
          "internalType": "uint256",
          "name": "",
          "type": "uint256"
        }
      ],
      "stateMutability": "pure",
      "type": "function"
    },
    {
      "inputs": [],
      "name": "getBlockInfo",
      "outputs": [
        {
          "internalType": "uint256",
          "name": "",
          "type": "uint256"
        },
        {
          "internalType": "uint256",
          "name": "",
          "type": "uint256"
        }
      ],
      "stateMutability": "view",
      "type": "function"
    }
  ],
  "bytecode": "0x608060405234801561001057600080fd5b5060f68061001f6000396000f3fe6080604052348015600f57600080fd5b506004361060315760003560e01c8062819439146036578063771602f714604e575b600080fd5b60408051438152426020820152015b60405180910390f35b605d6059366004607f565b606a565b6040519081526020016045565b6000806075838560a0565b9150505b92915050565b60008060408385031215609157600080fd5b50508035926020909101359150565b80820180821115607957634e487b7160e01b600052601160045260246000fdfea2646970667358221220da8b39c467acaa6fe7d1b00eeaea93456d8ae92c1f18ec21cb60fbc4b204813164736f6c63430008140033",
  "linkReferences": {},
  "deployedLinkReferences": {}
}