{
  "_format": "hh-sol-artifact-1",
  "contractName": "Mapping",
  "sourceName": "learning/11-Mapping/Mapping.sol",
  "abi": [
    {
      "inputs": [
        {
          "internalType": "address",
          "name": "",
          "type": "address"
        }
      ],
      "name": "balances",
      "outputs": [
        {
          "internalType": "uint256",
          "name": "",
          "type": "uint256"
        }
      ],
      "stateMutability": "view",
      "type": "function"
    },
    {
      "inputs": [],
      "name": "deposit",
      "outputs": [],
      "stateMutability": "payable",
      "type": "function"
    },
    {
      "inputs": [],
      "name": "getBalance",
      "outputs": [
        {
          "internalType": "uint256",
          "name": "",
          "type": "uint256"
        }
      ],
      "stateMutability": "view",
      "type": "function"
    },
    {
      "inputs": [
        {
          "internalType": "address",
          "name": "",
          "type": "address"
        }
      ],
      "name": "hasDeposited",
      "outputs": [
        {
          "internalType": "bool",
          "name": "",
          "type": "bool"
        }
      ],
      "stateMutability": "view",
      "type": "function"
    }
  ],
  "bytecode": "0x608060405234801561001057600080fd5b506101bc806100206000396000f3fe60806040526004361061003f5760003560e01c806312065fe01461004457806327e235e314610075578063d0e30db0146100a2578063f2c16e6f146100ac575b600080fd5b34801561005057600080fd5b50336000908152602081905260409020545b6040519081526020015b60405180910390f35b34801561008157600080fd5b5061006261009036600461012f565b60006020819052908152604090205481565b6100aa6100ec565b005b3480156100b857600080fd5b506100dc6100c736600461012f565b60016020526000908152604090205460ff1681565b604051901515815260200161006c565b336000908152602081905260408120805434929061010b90849061015f565b9091555050336000908152600160208190526040909120805460ff19169091179055565b60006020828403121561014157600080fd5b81356001600160a01b038116811461015857600080fd5b9392505050565b8082018082111561018057634e487b7160e01b600052601160045260246000fd5b9291505056fea264697066735822122007c89ac95c96b5b52886448e6139cc7f3ea2c75e904bf7d3dea7554b702aa86164736f6c63430008140033",
  "linkReferences": {},
  "deployedLinkReferences": {}
}