{
  "_format": "hh-sol-artifact-1",
  "contractName": "Intro",
  "sourceName": "learning/1-Intro/Intro.sol",
  "abi": [
    {
      "inputs": [],
      "name": "helloWorld",
      "outputs": [
        {
          "internalType": "string",
          "name": "",
          "type": "string"
        }
      ],
      "stateMutability": "view",
      "type": "function"
    },
    {
      "inputs": [],
      "name": "sayHello",
      "outputs": [
        {
          "internalType": "string",
          "name": "",
          "type": "string"
        }
      ],
      "stateMutability": "pure",
      "type": "function"
    }
  ],
  "bytecode": "0x608060405234801561001057600080fd5b5061011c806100206000396000f3fe6080604052348015600f57600080fd5b506004361060325760003560e01c8063c605f76c146037578063ef5fb05b146074575b600080fd5b60606040518060400160405280600b81526020016a12195b1b1bc815dbdc9b1960aa1b81525081565b604051606b9190609a565b60405180910390f35b60408051808201909152600b81526a12195b1b1bc815dbdc9b1960aa1b60208201526060565b600060208083528351808285015260005b8181101560c55785810183015185820160400152820160ab565b506000604082860101526040601f19601f830116850101925050509291505056fea264697066735822122011d9b337a07db68155b18cbd1c62ac9f543538813c4e05a127e357245728f4ef64736f6c63430008140033",
  "linkReferences": {},
  "deployedLinkReferences": {}
}