{
  "_format": "hh-sol-artifact-1",
  "contractName": "ContractBalance",
  "sourceName": "learning/14-Contract-Balance/ContractBalance.sol",
  "abi": [
    {
      "inputs": [],
      "name": "deposit",
      "outputs": [],
      "stateMutability": "payable",
      "type": "function"
    },
    {
      "inputs": [],
      "name": "getBalance",
      "outputs": [
        {
          "internalType": "uint256",
          "name": "",
          "type": "uint256"
        }
      ],
      "stateMutability": "view",
      "type": "function"
    },
    {
      "stateMutability": "payable",
      "type": "receive"
    }
  ],
  "bytecode": "0x6080604052348015600f57600080fd5b50608c8061001e6000396000f3fe608060405260043610602a5760003560e01c806312065fe0146035578063d0e30db014605457600080fd5b36603057005b600080fd5b348015604057600080fd5b504760405190815260200160405180910390f35b00fea26469706673582212207e788d12c02fd7c2573e78a16ff2d21b144b6c15f7be25d05cb605685c9ebe2964736f6c63430008140033",
  "linkReferences": {},
  "deployedLinkReferences": {}
}