{
  "_format": "hh-sol-artifact-1",
  "contractName": "Array",
  "sourceName": "learning/7-Array/Array.sol",
  "abi": [
    {
      "inputs": [
        {
          "internalType": "uint256",
          "name": "",
          "type": "uint256"
        }
      ],
      "name": "dynamicArray",
      "outputs": [
        {
          "internalType": "uint256",
          "name": "",
          "type": "uint256"
        }
      ],
      "stateMutability": "view",
      "type": "function"
    },
    {
      "inputs": [
        {
          "internalType": "uint256",
          "name": "",
          "type": "uint256"
        }
      ],
      "name": "fixedArray",
      "outputs": [
        {
          "internalType": "uint256",
          "name": "",
          "type": "uint256"
        }
      ],
      "stateMutability": "view",
      "type": "function"
    },
    {
      "inputs": [],
      "name": "getLength",
      "outputs": [
        {
          "internalType": "uint256",
          "name": "",
          "type": "uint256"
        }
      ],
      "stateMutability": "view",
      "type": "function"
    },
    {
      "inputs": [
        {
          "internalType": "uint256",
          "name": "x",
          "type": "uint256"
        }
      ],
      "name": "push",
      "outputs": [],
      "stateMutability": "nonpayable",
      "type": "function"
    },
    {
      "inputs": [
        {
          "internalType": "uint256",
          "name": "index",
          "type": "uint256"
        },
        {
          "internalType": "uint256",
          "name": "value",
          "type": "uint256"
        }
      ],
      "name": "setFixed",
      "outputs": [],
      "stateMutability": "nonpayable",
      "type": "function"
    }
  ],
  "bytecode": "0x608060405234801561001057600080fd5b50610211806100206000396000f3fe608060405234801561001057600080fd5b50600436106100575760003560e01c80633a92e6241461005c578063959ac484146100715780639a5009ac146100b45780639a9bdca7146100d9578063be1c766b146100ec575b600080fd5b61006f61006a36600461018a565b6100f4565b005b61006f61007f3660046101ac565b600380546001810182556000919091527fc2575a0e9e593c00f959f8c92f12db2869c3395a3b0502d05e2516446f71f85b0155565b6100c76100c23660046101ac565b610152565b60405190815260200160405180910390f35b6100c76100e73660046101ac565b610169565b6003546100c7565b600382106101385760405162461bcd60e51b815260206004820152600d60248201526c4f7574206f6620626f756e647360981b604482015260640160405180910390fd5b806000836003811061014c5761014c6101c5565b01555050565b6000816003811061016257600080fd5b0154905081565b6003818154811061017957600080fd5b600091825260209091200154905081565b6000806040838503121561019d57600080fd5b50508035926020909101359150565b6000602082840312156101be57600080fd5b5035919050565b634e487b7160e01b600052603260045260246000fdfea26469706673582212201c61ed031c5dd5f2b2fce633c3a3be78bff513fad7ffab89f14fe6e29c28e02464736f6c63430008140033",
  "linkReferences": {},
  "deployedLinkReferences": {}
}