{
  "_format": "hh-sol-artifact-1",
  "contractName": "DataTypes",
  "sourceName": "learning/6-Data-Types/DataTypes.sol",
  "abi": [
    {
      "inputs": [],
      "name": "addr",
      "outputs": [
        {
          "internalType": "address",
          "name": "",
          "type": "address"
        }
      ],
      "stateMutability": "view",
      "type": "function"
    },
    {
      "inputs": [],
      "name": "big",
      "outputs": [
        {
          "internalType": "uint256",
          "name": "",
          "type": "uint256"
        }
      ],
      "stateMutability": "view",
      "type": "function"
    },
    {
      "inputs": [],
      "name": "data",
      "outputs": [
        {
          "internalType": "bytes32",
          "name": "",
          "type": "bytes32"
        }
      ],
      "stateMutability": "view",
      "type": "function"
    },
    {
      "inputs": [],
      "name": "flag",
      "outputs": [
        {
          "internalType": "bool",
          "name": "",
          "type": "bool"
        }
      ],
      "stateMutability": "view",
      "type": "function"
    },
    {
      "inputs": [],
      "name": "signed",
      "outputs": [
        {
          "internalType": "int256",
          "name": "",
          "type": "int256"
        }
      ],
      "stateMutability": "view",
      "type": "function"
    },
    {
      "inputs": [],
      "name": "small",
      "outputs": [
        {
          "internalType": "uint8",
          "name": "",
          "type": "uint8"
        }
      ],
      "stateMutability": "view",
      "type": "function"
    },
    {
      "inputs": [],
      "name": "text",
      "outputs": [
        {
          "internalType": "string",
          "name": "",
          "type": "string"
        }
      ],
      "stateMutability": "view",
      "type": "function"
    }
  ],
  "bytecode": "0x6000805461ff0161ffff199091161790556000196001819055600255600380546001600160a01b031916301790556468656c6c6f60d81b60045560c060405260096080908152684176616c616e63686560b81b60a0526005906100629082610114565b5034801561006f57600080fd5b506101d3565b634e487b7160e01b600052604160045260246000fd5b600181811c9082168061009f57607f821691505b6020821081036100bf57634e487b7160e01b600052602260045260246000fd5b50919050565b601f82111561010f57600081815260208120601f850160051c810160208610156100ec5750805b601f850160051c820191505b8181101561010b578281556001016100f8565b5050505b505050565b81516001600160401b0381111561012d5761012d610075565b6101418161013b845461008b565b846100c5565b602080601f831160018114610176576000841561015e5750858301515b600019600386901b1c1916600185901b17855561010b565b600085815260208120601f198616915b828110156101a557888601518255948401946001909101908401610186565b50858210156101c35787850151600019600388901b60f8161c191681555b5050505050600190811b01905550565b610281806101e26000396000f3fe608060405234801561001057600080fd5b506004361061007d5760003560e01c806373d4a13a1161005b57806373d4a13a146100db578063767800de146100e4578063887b13a31461010f578063890eba681461011857600080fd5b80631f1bd69214610082578063232a6b9d146100a05780636cf3c25e146100b7575b600080fd5b61008a610135565b60405161009791906101c3565b60405180910390f35b6100a960025481565b604051908152602001610097565b6000546100c990610100900460ff1681565b60405160ff9091168152602001610097565b6100a960045481565b6003546100f7906001600160a01b031681565b6040516001600160a01b039091168152602001610097565b6100a960015481565b6000546101259060ff1681565b6040519015158152602001610097565b6005805461014290610211565b80601f016020809104026020016040519081016040528092919081815260200182805461016e90610211565b80156101bb5780601f10610190576101008083540402835291602001916101bb565b820191906000526020600020905b81548152906001019060200180831161019e57829003601f168201915b505050505081565b600060208083528351808285015260005b818110156101f0578581018301518582016040015282016101d4565b506000604082860101526040601f19601f8301168501019250505092915050565b600181811c9082168061022557607f821691505b60208210810361024557634e487b7160e01b600052602260045260246000fd5b5091905056fea2646970667358221220508e1813efcd25719a8100d2d29e5ee35fe7eddec9cdf1c89116d6e1a298284364736f6c63430008140033",
  "linkReferences": {},
  "deployedLinkReferences": {}
}