{
  "_format": "hh-sol-artifact-1",
  "contractName": "Struct",
  "sourceName": "learning/10-Struct/Struct.sol",
  "abi": [
    {
      "inputs": [
        {
          "internalType": "string",
          "name": "_name",
          "type": "string"
        },
        {
          "internalType": "uint256",
          "name": "_age",
          "type": "uint256"
        }
      ],
      "name": "add",
      "outputs": [],
      "stateMutability": "nonpayable",
      "type": "function"
    },
    {
      "inputs": [
        {
          "internalType": "uint256",
          "name": "index",
          "type": "uint256"
        }
      ],
      "name": "get",
      "outputs": [
        {
          "internalType": "string",
          "name": "",
          "type": "string"
        },
        {
          "internalType": "uint256",
          "name": "",
          "type": "uint256"
        },
        {
          "internalType": "address",
          "name": "",
          "type": "address"
        }
      ],
      "stateMutability": "view",
      "type": "function"
    },
    {
      "inputs": [
        {
          "internalType": "uint256",
          "name": "",
          "type": "uint256"
        }
      ],
      "name": "people",
      "outputs": [
        {
          "internalType": "string",
          "name": "name",
          "type": "string"
        },
        {
          "internalType": "uint256",
          "name": "age",
          "type": "uint256"
        },
        {
          "internalType": "address",
          "name": "wallet",
          "type": "address"
        }
      ],
      "stateMutability": "view",
      "type": "function"
    }
  ],
  "bytecode": "0x608060405234801561001057600080fd5b506105ae806100206000396000f3fe608060405234801561001057600080fd5b50600436106100415760003560e01c806336555b85146100465780639507d39a1461005b5780639e7a13ad14610086575b600080fd5b61005961005436600461030c565b610099565b005b61006e610069366004610384565b610144565b60405161007d9392919061039d565b60405180910390f35b61006e610094366004610384565b610240565b6040805160806020601f860181900402820181019092526060810184815260009282919087908790819085018382808284376000920182905250938552505050602080830186905233604090930192909252835460018101855593815220815191926003020190819061010c90826104a2565b5060208201516001820155604090910151600290910180546001600160a01b0319166001600160a01b03909216919091179055505050565b6060600080600080858154811061015d5761015d610562565b906000526020600020906003020160405180606001604052908160008201805461018690610419565b80601f01602080910402602001604051908101604052809291908181526020018280546101b290610419565b80156101ff5780601f106101d4576101008083540402835291602001916101ff565b820191906000526020600020905b8154815290600101906020018083116101e257829003601f168201915b505050918352505060018201546020808301919091526002909201546001600160a01b03166040918201528251918301519201519097919650945092505050565b6000818154811061025057600080fd5b906000526020600020906003020160009150905080600001805461027390610419565b80601f016020809104026020016040519081016040528092919081815260200182805461029f90610419565b80156102ec5780601f106102c1576101008083540402835291602001916102ec565b820191906000526020600020905b8154815290600101906020018083116102cf57829003601f168201915b5050505060018301546002909301549192916001600160a01b0316905083565b60008060006040848603121561032157600080fd5b833567ffffffffffffffff8082111561033957600080fd5b818601915086601f83011261034d57600080fd5b81358181111561035c57600080fd5b87602082850101111561036e57600080fd5b6020928301989097509590910135949350505050565b60006020828403121561039657600080fd5b5035919050565b606081526000845180606084015260005b818110156103cb57602081880181015160808684010152016103ae565b506000608082850181019190915260208401959095526001600160a01b0393909316604083015250601f909101601f19160101919050565b634e487b7160e01b600052604160045260246000fd5b600181811c9082168061042d57607f821691505b60208210810361044d57634e487b7160e01b600052602260045260246000fd5b50919050565b601f82111561049d57600081815260208120601f850160051c8101602086101561047a5750805b601f850160051c820191505b8181101561049957828155600101610486565b5050505b505050565b815167ffffffffffffffff8111156104bc576104bc610403565b6104d0816104ca8454610419565b84610453565b602080601f83116001811461050557600084156104ed5750858301515b600019600386901b1c1916600185901b178555610499565b600085815260208120601f198616915b8281101561053457888601518255948401946001909101908401610515565b50858210156105525787850151600019600388901b60f8161c191681555b5050505050600190811b01905550565b634e487b7160e01b600052603260045260246000fdfea264697066735822122022ff59aaa86efe87ca5a5e1b22bc90be80c8c601c3012e563bd0760087f343ea64736f6c63430008140033",
  "linkReferences": {},
  "deployedLinkReferences": {}
}