{
  "_format": "hh-sol-artifact-1",
  "contractName": "EcoLedger",
  "sourceName": "contracts/EcoLedger.sol",
  "abi": [
    {
      "inputs": [],
      "stateMutability": "nonpayable",
      "type": "constructor"
    },
    {
      "anonymous": false,
      "inputs": [
        {
          "indexed": true,
          "internalType": "address",
          "name": "participant",
          "type": "address"
        },
        {
          "indexed": false,
          "internalType": "string",
          "name": "actionType",
          "type": "string"
        },
        {
          "indexed": false,
          "internalType": "uint256",
          "name": "timestamp",
          "type": "uint256"
        }
      ],
      "name": "ActionRecorded",
      "type": "event"
    },
    {
      "anonymous": false,
      "inputs": [
        {
          "indexed": true,
          "internalType": "address",
          "name": "oldAdmin",
          "type": "address"
        },
        {
          "indexed": true,
          "internalType": "address",
          "name": "newAdmin",
          "type": "address"
        }
      ],
      "name": "AdminTransferred",
      "type": "event"
    },
    {
      "anonymous": false,
      "inputs": [
        {
          "indexed": true,
          "internalType": "address",
          "name": "participant",
          "type": "address"
        },
        {
          "indexed": false,
          "internalType": "uint256",
          "name": "amount",
          "type": "uint256"
        },
        {
          "indexed": false,
          "internalType": "uint256",
          "name": "newTotal",
          "type": "uint256"
        }
      ],
      "name": "PointsAwarded",
      "type": "event"
    },
    {
      "inputs": [
        {
          "internalType": "address",
          "name": "",
          "type": "address"
        }
      ],
      "name": "actionCount",
      "outputs": [
        {
          "internalType": "uint256",
          "name": "",
          "type": "uint256"
        }
      ],
      "stateMutability": "view",
      "type": "function"
    },
    {
      "inputs": [],
      "name": "admin",
      "outputs": [
        {
          "internalType": "address",
          "name": "",
          "type": "address"
        }
      ],
      "stateMutability": "view",
      "type": "function"
    },
    {
      "inputs": [
        {
          "internalType": "address",
          "name": "participant",
          "type": "address"
        }
      ],
      "name": "getPoints",
      "outputs": [
        {
          "internalType": "uint256",
          "name": "",
          "type": "uint256"
        }
      ],
      "stateMutability": "view",
      "type": "function"
    },
    {
      "inputs": [
        {
          "internalType": "address",
          "name": "",
          "type": "address"
        }
      ],
      "name": "points",
      "outputs": [
        {
          "internalType": "uint256",
          "name": "",
          "type": "uint256"
        }
      ],
      "stateMutability": "view",
      "type": "function"
    },
    {
      "inputs": [
        {
          "internalType": "address",
          "name": "participant",
          "type": "address"
        },
        {
          "internalType": "string",
          "name": "actionType",
          "type": "string"
        },
        {
          "internalType": "uint256",
          "name": "pointsToAward",
          "type": "uint256"
        }
      ],
      "name": "recordAction",
      "outputs": [],
      "stateMutability": "nonpayable",
      "type": "function"
    },
    {
      "inputs": [],
      "name": "totalActionsRecorded",
      "outputs": [
        {
          "internalType": "uint256",
          "name": "",
          "type": "uint256"
        }
      ],
      "stateMutability": "view",
      "type": "function"
    },
    {
      "inputs": [
        {
          "internalType": "address",
          "name": "newAdmin",
          "type": "address"
        }
      ],
      "name": "transferAdmin",
      "outputs": [],
      "stateMutability": "nonpayable",
      "type": "function"
    }
  ],
  "bytecode": "0x608060405234801561001057600080fd5b50600080546001600160a01b031916331790556105a2806100326000396000f3fe608060405234801561001057600080fd5b506004361061007d5760003560e01c806375829def1161005b57806375829def146100d3578063cc51fca7146100e6578063ee204abb14610106578063f851a4401461012f57600080fd5b806306f2a1b11461008257806333deb76914610097578063358b8166146100b3575b600080fd5b610095610090366004610440565b61015a565b005b6100a060025481565b6040519081526020015b60405180910390f35b6100a06100c13660046104c9565b60016020526000908152604090205481565b6100956100e13660046104c9565b61033a565b6100a06100f43660046104c9565b60036020526000908152604090205481565b6100a06101143660046104c9565b6001600160a01b031660009081526001602052604090205490565b600054610142906001600160a01b031681565b6040516001600160a01b0390911681526020016100aa565b6000546001600160a01b031633146101a65760405162461bcd60e51b815260206004820152600a60248201526927b7363c9030b236b4b760b11b60448201526064015b60405180910390fd5b6001600160a01b0384166101ee5760405162461bcd60e51b815260206004820152600f60248201526e496e76616c6964206164647265737360881b604482015260640161019d565b600081116102335760405162461bcd60e51b81526020600482015260126024820152710506f696e7473206d757374206265203e20360741b604482015260640161019d565b6001600160a01b0384166000908152600160205260408120805483929061025b908490610501565b9091555050600280549060006102708361051a565b90915550506001600160a01b03841660009081526003602052604081208054916102998361051a565b9190505550836001600160a01b03167f533f0a86420848556053acb6d591f6533cd0f33a263fff71497f9b2842ee6a728484426040516102db93929190610533565b60405180910390a26001600160a01b038416600081815260016020908152604091829020548251858152918201527f2292e1cf0767804f0c9d4e1f6a5c721c2e11d13a76402bc549936f0f5a27af6a910160405180910390a250505050565b6000546001600160a01b031633146103815760405162461bcd60e51b815260206004820152600a60248201526927b7363c9030b236b4b760b11b604482015260640161019d565b6001600160a01b0381166103c95760405162461bcd60e51b815260206004820152600f60248201526e496e76616c6964206164647265737360881b604482015260640161019d565b600080546040516001600160a01b03808516939216917ff8ccb027dfcd135e000e9d45e6cc2d662578a8825d4c45b5e32e0adf67e79ec691a3600080546001600160a01b0319166001600160a01b0392909216919091179055565b80356001600160a01b038116811461043b57600080fd5b919050565b6000806000806060858703121561045657600080fd5b61045f85610424565b9350602085013567ffffffffffffffff8082111561047c57600080fd5b818701915087601f83011261049057600080fd5b81358181111561049f57600080fd5b8860208285010111156104b157600080fd5b95986020929092019750949560400135945092505050565b6000602082840312156104db57600080fd5b6104e482610424565b9392505050565b634e487b7160e01b600052601160045260246000fd5b80820180821115610514576105146104eb565b92915050565b60006001820161052c5761052c6104eb565b5060010190565b604081528260408201528284606083013760006060848301015260006060601f19601f860116830101905082602083015294935050505056fea26469706673582212207405a30e40d14395e691ab3f320ecc5d6392602f0710d4c1283f25692eda212364736f6c63430008140033",
  "linkReferences": {},
  "deployedLinkReferences": {}
}