{
  "_format": "hh-sol-artifact-1",
  "contractName": "EcoLedger",
  "sourceName": "contracts/EcoLedger.sol",
  "abi": [
    {
      "inputs": [],
      "stateMutability": "nonpayable",
      "type": "constructor"
    },
    {
      "anonymous": false,
      "inputs": [
        {
          "indexed": true,
          "internalType": "address",
          "name": "participant",
          "type": "address"
        },
        {
          "indexed": false,
          "internalType": "string",
          "name": "actionType",
          "type": "string"
        },
        {
          "indexed": false,
          "internalType": "string",
          "name": "proofUrl",
          "type": "string"
        },
        {
          "indexed": false,
          "internalType": "uint256",
          "name": "timestamp",
          "type": "uint256"
        }
      ],
      "name": "ActionRecorded",
      "type": "event"
    },
    {
      "anonymous": false,
      "inputs": [
        {
          "indexed": true,
          "internalType": "address",
          "name": "oldAdmin",
          "type": "address"
        },
        {
          "indexed": true,
          "internalType": "address",
          "name": "newAdmin",
          "type": "address"
        }
      ],
      "name": "AdminTransferred",
      "type": "event"
    },
    {
      "anonymous": false,
      "inputs": [
        {
          "indexed": true,
          "internalType": "address",
          "name": "participant",
          "type": "address"
        },
        {
          "indexed": false,
          "internalType": "uint256",
          "name": "amount",
          "type": "uint256"
        },
        {
          "indexed": false,
          "internalType": "uint256",
          "name": "newTotal",
          "type": "uint256"
        }
      ],
      "name": "PointsAwarded",
      "type": "event"
    },
    {
      "inputs": [
        {
          "internalType": "address",
          "name": "",
          "type": "address"
        }
      ],
      "name": "actionCount",
      "outputs": [
        {
          "internalType": "uint256",
          "name": "",
          "type": "uint256"
        }
      ],
      "stateMutability": "view",
      "type": "function"
    },
    {
      "inputs": [],
      "name": "admin",
      "outputs": [
        {
          "internalType": "address",
          "name": "",
          "type": "address"
        }
      ],
      "stateMutability": "view",
      "type": "function"
    },
    {
      "inputs": [
        {
          "internalType": "address",
          "name": "participant",
          "type": "address"
        }
      ],
      "name": "getPoints",
      "outputs": [
        {
          "internalType": "uint256",
          "name": "",
          "type": "uint256"
        }
      ],
      "stateMutability": "view",
      "type": "function"
    },
    {
      "inputs": [
        {
          "internalType": "address",
          "name": "",
          "type": "address"
        }
      ],
      "name": "points",
      "outputs": [
        {
          "internalType": "uint256",
          "name": "",
          "type": "uint256"
        }
      ],
      "stateMutability": "view",
      "type": "function"
    },
    {
      "inputs": [
        {
          "internalType": "address",
          "name": "participant",
          "type": "address"
        },
        {
          "internalType": "string",
          "name": "actionType",
          "type": "string"
        },
        {
          "internalType": "uint256",
          "name": "pointsToAward",
          "type": "uint256"
        },
        {
          "internalType": "string",
          "name": "proofUrl",
          "type": "string"
        }
      ],
      "name": "recordAction",
      "outputs": [],
      "stateMutability": "nonpayable",
      "type": "function"
    },
    {
      "inputs": [],
      "name": "totalActionsRecorded",
      "outputs": [
        {
          "internalType": "uint256",
          "name": "",
          "type": "uint256"
        }
      ],
      "stateMutability": "view",
      "type": "function"
    },
    {
      "inputs": [
        {
          "internalType": "address",
          "name": "newAdmin",
          "type": "address"
        }
      ],
      "name": "transferAdmin",
      "outputs": [],
      "stateMutability": "nonpayable",
      "type": "function"
    }
  ],
  "bytecode": "0x608060405234801561001057600080fd5b50600080546001600160a01b0319163317905561061c806100326000396000f3fe608060405234801561001057600080fd5b506004361061007d5760003560e01c8063b57c23941161005b578063b57c2394146100d3578063cc51fca7146100e6578063ee204abb14610106578063f851a4401461012f57600080fd5b806333deb76914610082578063358b81661461009e57806375829def146100be575b600080fd5b61008b60025481565b6040519081526020015b60405180910390f35b61008b6100ac366004610446565b60016020526000908152604090205481565b6100d16100cc366004610446565b61015a565b005b6100d16100e13660046104b1565b610249565b61008b6100f4366004610446565b60036020526000908152604090205481565b61008b610114366004610446565b6001600160a01b031660009081526001602052604090205490565b600054610142906001600160a01b031681565b6040516001600160a01b039091168152602001610095565b6000546001600160a01b031633146101a65760405162461bcd60e51b815260206004820152600a60248201526927b7363c9030b236b4b760b11b60448201526064015b60405180910390fd5b6001600160a01b0381166101ee5760405162461bcd60e51b815260206004820152600f60248201526e496e76616c6964206164647265737360881b604482015260640161019d565b600080546040516001600160a01b03808516939216917ff8ccb027dfcd135e000e9d45e6cc2d662578a8825d4c45b5e32e0adf67e79ec691a3600080546001600160a01b0319166001600160a01b0392909216919091179055565b6000546001600160a01b031633146102905760405162461bcd60e51b815260206004820152600a60248201526927b7363c9030b236b4b760b11b604482015260640161019d565b6001600160a01b0386166102d85760405162461bcd60e51b815260206004820152600f60248201526e496e76616c6964206164647265737360881b604482015260640161019d565b6000831161031d5760405162461bcd60e51b81526020600482015260126024820152710506f696e7473206d757374206265203e20360741b604482015260640161019d565b6001600160a01b03861660009081526001602052604081208054859290610345908490610551565b90915550506002805490600061035a8361056a565b90915550506001600160a01b03861660009081526003602052604081208054916103838361056a565b9190505550856001600160a01b03167f97620a8e163ffbac38ed6aef6eda21a2f466d3095f796abba72f3b38fcea141f86868585426040516103c99594939291906105ac565b60405180910390a26001600160a01b038616600081815260016020908152604091829020548251878152918201527f2292e1cf0767804f0c9d4e1f6a5c721c2e11d13a76402bc549936f0f5a27af6a910160405180910390a2505050505050565b80356001600160a01b038116811461044157600080fd5b919050565b60006020828403121561045857600080fd5b6104618261042a565b9392505050565b60008083601f84011261047a57600080fd5b50813567ffffffffffffffff81111561049257600080fd5b6020830191508360208285010111156104aa57600080fd5b9250929050565b600080600080600080608087890312156104ca57600080fd5b6104d38761042a565b9550602087013567ffffffffffffffff808211156104f057600080fd5b6104fc8a838b01610468565b909750955060408901359450606089013591508082111561051c57600080fd5b5061052989828a01610468565b979a9699509497509295939492505050565b634e487b7160e01b600052601160045260246000fd5b808201808211156105645761056461053b565b92915050565b60006001820161057c5761057c61053b565b5060010190565b81835281816020850137506000828201602090810191909152601f909101601f19169091010190565b6060815260006105c0606083018789610583565b82810360208401526105d3818688610583565b915050826040830152969550505050505056fea2646970667358221220040fa918e88e41c7b11fa5782158fcc0d171ffb1ca95a61f3fb3e26517dbbf5864736f6c63430008140033",
  "linkReferences": {},
  "deployedLinkReferences": {}
}