{
  "_format": "hh-sol-artifact-1",
  "contractName": "GlobalVariables",
  "sourceName": "learning/13-Global-Variables/GlobalVariables.sol",
  "abi": [
    {
      "inputs": [],
      "name": "getGlobals",
      "outputs": [
        {
          "internalType": "address",
          "name": "sender",
          "type": "address"
        },
        {
          "internalType": "uint256",
          "name": "value",
          "type": "uint256"
        },
        {
          "internalType": "uint256",
          "name": "blockNum",
          "type": "uint256"
        },
        {
          "internalType": "uint256",
          "name": "timestamp",
          "type": "uint256"
        },
        {
          "internalType": "uint256",
          "name": "gasLimit",
          "type": "uint256"
        }
      ],
      "stateMutability": "payable",
      "type": "function"
    }
  ],
  "bytecode": "0x6080604052348015600f57600080fd5b50608180601d6000396000f3fe608060405260043610601c5760003560e01c8063d9f38c99146021575b600080fd5b60408051338152346020820152438183015242606082015245608082015290519081900360a00190f3fea26469706673582212209deef4e7bb75eed31763a1e31820d97438090d558ca52c58afaad0b04ae6c70864736f6c63430008140033",
  "linkReferences": {},
  "deployedLinkReferences": {}
}