{
  "_format": "hh-sol-artifact-1",
  "contractName": "Conditionals",
  "sourceName": "learning/9-Conditionals/Conditionals.sol",
  "abi": [
    {
      "inputs": [
        {
          "internalType": "uint256",
          "name": "x",
          "type": "uint256"
        }
      ],
      "name": "check",
      "outputs": [
        {
          "internalType": "string",
          "name": "",
          "type": "string"
        }
      ],
      "stateMutability": "pure",
      "type": "function"
    },
    {
      "inputs": [
        {
          "internalType": "uint256",
          "name": "a",
          "type": "uint256"
        },
        {
          "internalType": "uint256",
          "name": "b",
          "type": "uint256"
        }
      ],
      "name": "min",
      "outputs": [
        {
          "internalType": "uint256",
          "name": "",
          "type": "uint256"
        }
      ],
      "stateMutability": "pure",
      "type": "function"
    },
    {
      "inputs": [
        {
          "internalType": "uint256",
          "name": "x",
          "type": "uint256"
        }
      ],
      "name": "onlyPositive",
      "outputs": [
        {
          "internalType": "uint256",
          "name": "",
          "type": "uint256"
        }
      ],
      "stateMutability": "pure",
      "type": "function"
    }
  ],
  "bytecode": "0x608060405234801561001057600080fd5b5061023a806100206000396000f3fe608060405234801561001057600080fd5b50600436106100415760003560e01c80632ae4a8de146100465780635f72f4501461006c5780637ae2b5c71461008c575b600080fd5b61005961005436600461017b565b61009f565b6040519081526020015b60405180910390f35b61007f61007a36600461017b565b6100eb565b6040516100639190610194565b61005961009a3660046101e2565b610163565b60008082116100e75760405162461bcd60e51b815260206004820152601060248201526f4d75737420626520706f73697469766560801b604482015260640160405180910390fd5b5090565b6060600a8210156101175750506040805180820190915260058152641cdb585b1b60da1b602082015290565b60648210156101425750506040805180820190915260068152656d656469756d60d01b602082015290565b50506040805180820190915260058152646c6172676560d81b602082015290565b60008183106101725781610174565b825b9392505050565b60006020828403121561018d57600080fd5b5035919050565b600060208083528351808285015260005b818110156101c1578581018301518582016040015282016101a5565b506000604082860101526040601f19601f8301168501019250505092915050565b600080604083850312156101f557600080fd5b5050803592602090910135915056fea26469706673582212208c4fe9876d1f30508c13e0ec77f4f5436a9d8454bbfe3b7ddbfcb11f9e789b6664736f6c63430008140033",
  "linkReferences": {},
  "deployedLinkReferences": {}
}