{
  "_format": "hh-sol-artifact-1",
  "contractName": "Constructor",
  "sourceName": "learning/5-Constructor/Constructor.sol",
  "abi": [
    {
      "inputs": [],
      "stateMutability": "nonpayable",
      "type": "constructor"
    },
    {
      "inputs": [],
      "name": "createdAt",
      "outputs": [
        {
          "internalType": "uint256",
          "name": "",
          "type": "uint256"
        }
      ],
      "stateMutability": "view",
      "type": "function"
    },
    {
      "inputs": [],
      "name": "owner",
      "outputs": [
        {
          "internalType": "address",
          "name": "",
          "type": "address"
        }
      ],
      "stateMutability": "view",
      "type": "function"
    }
  ],
  "bytecode": "0x608060405234801561001057600080fd5b50600080546001600160a01b031916331790554260015560b1806100356000396000f3fe6080604052348015600f57600080fd5b506004361060325760003560e01c80638da5cb5b146037578063cf09e0d0146066575b600080fd5b6000546049906001600160a01b031681565b6040516001600160a01b0390911681526020015b60405180910390f35b606e60015481565b604051908152602001605d56fea2646970667358221220bb57eb174afe5e181c663a19dfbf32e441447e632e56451db6ea02a9b59d631064736f6c63430008140033",
  "linkReferences": {},
  "deployedLinkReferences": {}
}